{"abi":[{"type":"function","name":"computeRoot","inputs":[{"name":"proof","type":"uint256[32]","internalType":"uint256[32]"},{"name":"proofLen","type":"uint256","internalType":"uint256"},{"name":"leaf","type":"bytes32","internalType":"bytes32"}],"outputs":[{"name":"","type":"bytes32","internalType":"bytes32"}],"stateMutability":"pure"},{"type":"function","name":"verify","inputs":[{"name":"proof","type":"uint256[32]","internalType":"uint256[32]"},{"name":"proofLen","type":"uint256","internalType":"uint256"},{"name":"root","type":"bytes32","internalType":"bytes32"},{"name":"leaf","type":"bytes32","internalType":"bytes32"}],"outputs":[{"name":"","type":"bool","internalType":"bool"}],"stateMutability":"view"}],"bytecode":{"object":"0x608060405234801561000f575f80fd5b506102968061001d5f395ff3fe608060405234801561000f575f80fd5b5060043610610034575f3560e01c80635dbad1c614610038578063dc9585d014610060575b5f80fd5b61004b6100463660046101aa565b610081565b60405190151581526020015b60405180910390f35b61007361006e3660046101e5565b6100f5565b604051908152602001610057565b604051630dc9585d60e41b81525f908390309063dc9585d0906100ac90899089908890600401610219565b602060405180830381865afa1580156100c7573d5f803e3d5ffd5b505050506040513d601f19601f820116820180604052508101906100eb9190610235565b1495945050505050565b5f81815b8481101561018a575f8682602081106101145761011461024c565b6020020135905080831015610154576040805160208101859052908101829052606001604051602081830303815290604052805190602001209250610181565b60408051602081018390529081018490526060016040516020818303038152906040528051906020012092505b506001016100f9565b50949350505050565b8061040081018310156101a4575f80fd5b92915050565b5f805f8061046085870312156101be575f80fd5b6101c88686610193565b966104008601359650610420860135956104400135945092505050565b5f805f61044084860312156101f8575f80fd5b6102028585610193565b956104008501359550610420909401359392505050565b6104408101610400808684378201939093526104200152919050565b5f60208284031215610245575f80fd5b5051919050565b634e487b7160e01b5f52603260045260245ffdfea26469706673582212201783731dfc3b97c0c3ba6a6f1f12c026b18ec4db2d67565fb69d2e9f358e758c64736f6c63430008180033","linkReferences":{}},"methodIdentifiers":{"computeRoot(uint256[32],uint256,bytes32)":"dc9585d0","verify(uint256[32],uint256,bytes32,bytes32)":"5dbad1c6"},"id":0}